{
  "contractName": "Evoting",
  "abi": [
    {
      "inputs": [],
      "payable": false,
      "stateMutability": "nonpayable",
      "type": "constructor"
    },
    {
      "constant": true,
      "inputs": [
        {
          "internalType": "uint256",
          "name": "",
          "type": "uint256"
        }
      ],
      "name": "Elections",
      "outputs": [
        {
          "internalType": "uint256",
          "name": "id",
          "type": "uint256"
        },
        {
          "internalType": "string",
          "name": "name",
          "type": "string"
        },
        {
          "internalType": "uint256",
          "name": "voteCount",
          "type": "uint256"
        },
        {
          "internalType": "uint256",
          "name": "voteStart",
          "type": "uint256"
        },
        {
          "internalType": "uint256",
          "name": "voteEnd",
          "type": "uint256"
        },
        {
          "internalType": "uint256",
          "name": "CandidatesCount",
          "type": "uint256"
        }
      ],
      "payable": false,
      "stateMutability": "view",
      "type": "function"
    },
    {
      "constant": true,
      "inputs": [],
      "name": "ElectionsCount",
      "outputs": [
        {
          "internalType": "uint256",
          "name": "",
          "type": "uint256"
        }
      ],
      "payable": false,
      "stateMutability": "view",
      "type": "function"
    },
    {
      "constant": true,
      "inputs": [
        {
          "internalType": "address",
          "name": "",
          "type": "address"
        }
      ],
      "name": "Voters",
      "outputs": [
        {
          "internalType": "uint256",
          "name": "pool_id",
          "type": "uint256"
        },
        {
          "internalType": "uint256",
          "name": "vote_height",
          "type": "uint256"
        }
      ],
      "payable": false,
      "stateMutability": "view",
      "type": "function"
    },
    {
      "constant": true,
      "inputs": [],
      "name": "VotersCount",
      "outputs": [
        {
          "internalType": "uint256",
          "name": "",
          "type": "uint256"
        }
      ],
      "payable": false,
      "stateMutability": "view",
      "type": "function"
    },
    {
      "constant": false,
      "inputs": [
        {
          "internalType": "string",
          "name": "_name",
          "type": "string"
        },
        {
          "internalType": "bytes32[]",
          "name": "_candidates",
          "type": "bytes32[]"
        },
        {
          "internalType": "uint256",
          "name": "_candidatesCount",
          "type": "uint256"
        },
        {
          "internalType": "uint256",
          "name": "_durationSeconds",
          "type": "uint256"
        }
      ],
      "name": "addElections",
      "outputs": [],
      "payable": false,
      "stateMutability": "nonpayable",
      "type": "function"
    },
    {
      "constant": true,
      "inputs": [
        {
          "internalType": "uint256",
          "name": "_idElection",
          "type": "uint256"
        },
        {
          "internalType": "uint256",
          "name": "_idCandidate",
          "type": "uint256"
        }
      ],
      "name": "GetCandidate",
      "outputs": [
        {
          "internalType": "uint256",
          "name": "",
          "type": "uint256"
        },
        {
          "internalType": "string",
          "name": "",
          "type": "string"
        },
        {
          "internalType": "uint256",
          "name": "",
          "type": "uint256"
        }
      ],
      "payable": false,
      "stateMutability": "view",
      "type": "function"
    },
    {
      "constant": false,
      "inputs": [
        {
          "internalType": "address",
          "name": "_voterAddress",
          "type": "address"
        },
        {
          "internalType": "uint256",
          "name": "pool_id",
          "type": "uint256"
        }
      ],
      "name": "RegisterVoter",
      "outputs": [],
      "payable": false,
      "stateMutability": "nonpayable",
      "type": "function"
    },
    {
      "constant": false,
      "inputs": [
        {
          "internalType": "address",
          "name": "_voterAddress",
          "type": "address"
        }
      ],
      "name": "BanVoter",
      "outputs": [],
      "payable": false,
      "stateMutability": "nonpayable",
      "type": "function"
    },
    {
      "constant": true,
      "inputs": [
        {
          "internalType": "address",
          "name": "_voterAddress",
          "type": "address"
        }
      ],
      "name": "CanVote",
      "outputs": [
        {
          "internalType": "bool",
          "name": "",
          "type": "bool"
        }
      ],
      "payable": false,
      "stateMutability": "view",
      "type": "function"
    },
    {
      "constant": true,
      "inputs": [
        {
          "internalType": "address",
          "name": "_voterAddress",
          "type": "address"
        }
      ],
      "name": "HasVoted",
      "outputs": [
        {
          "internalType": "bool",
          "name": "",
          "type": "bool"
        }
      ],
      "payable": false,
      "stateMutability": "view",
      "type": "function"
    },
    {
      "constant": false,
      "inputs": [
        {
          "internalType": "uint256",
          "name": "_candidateId",
          "type": "uint256"
        }
      ],
      "name": "Vote",
      "outputs": [],
      "payable": false,
      "stateMutability": "nonpayable",
      "type": "function"
    },
    {
      "constant": true,
      "inputs": [
        {
          "internalType": "bytes32",
          "name": "_bytes32",
          "type": "bytes32"
        }
      ],
      "name": "bytes32ToString",
      "outputs": [
        {
          "internalType": "string",
          "name": "",
          "type": "string"
        }
      ],
      "payable": false,
      "stateMutability": "pure",
      "type": "function"
    }
  ],
  "bytecode": "0x608060405234801561001057600080fd5b506116c2806100206000396000f3fe608060405234801561001057600080fd5b50600436106100b45760003560e01c8063b012f20e11610071578063b012f20e146101a8578063c60d1b61146101c4578063dcd6a5cd146101e0578063ded44641146101fc578063f27464ed1461022c578063fdedaa8a1461025c576100b4565b80631e9598e2146100b957806343d191b2146100ee5780635ab7a46e1461010c578063688820d11461012a57806386a455fc1461015c5780639201de5514610178575b600080fd5b6100d360048036036100ce9190810190610f99565b61028d565b6040516100e59695949392919061145c565b60405180910390f35b6100f6610361565b6040516101039190611403565b60405180910390f35b610114610367565b6040516101219190611403565b60405180910390f35b610144600480360361013f9190810190610fc2565b61036d565b6040516101539392919061141e565b60405180910390f35b61017660048036036101719190810190610f06565b61049c565b005b610192600480360361018d9190810190610edd565b610591565b60405161019f9190611301565b60405180910390f35b6101c260048036036101bd9190810190610e78565b6106ee565b005b6101de60048036036101d99190810190610ea1565b6107cf565b005b6101fa60048036036101f59190810190610f99565b6108d4565b005b61021660048036036102119190810190610e78565b610b09565b60405161022391906112e6565b60405180910390f35b61024660048036036102419190810190610e78565b610b66565b60405161025391906112e6565b60405180910390f35b61027660048036036102719190810190610e78565b610bc5565b6040516102849291906114c4565b60405180910390f35b6001602052806000526040600020600091509050806000015490806001018054600181600116156101000203166002900480601f01602080910402602001604051908101604052809291908181526020018280546001816001161561010002031660029004801561033f5780601f106103145761010080835404028352916020019161033f565b820191906000526020600020905b81548152906001019060200180831161032257829003601f168201915b5050505050908060020154908060030154908060040154908060050154905086565b60035481565b60025481565b6000606060006001600086815260200190815260200160002060060160008581526020019081526020016000206000015460016000878152602001908152602001600020600601600086815260200190815260200160002060010160016000888152602001908152602001600020600601600087815260200190815260200160002060020154818054600181600116156101000203166002900480601f0160208091040260200160405190810160405280929190818152602001828054600181600116156101000203166002900480156104885780601f1061045d57610100808354040283529160200191610488565b820191906000526020600020905b81548152906001019060200180831161046b57829003601f168201915b505050505091509250925092509250925092565b6002600081548092919060010191905055506040518060c001604052806002548152602001858152602001600081526020016000420181526020018242018152602001600081525060016000600254815260200190815260200160002060008201518160000155602082015181600101908051906020019061051f929190610cbd565b5060408201518160020155606082015181600301556080820151816004015560a0820151816005015590505060008090505b8281101561058a5761057d61057885838151811061056b57fe5b6020026020010151610591565b610be9565b8080600101915050610551565b5050505050565b606060008090505b60208160ff161080156105e45750600060f81b838260ff16602081106105bb57fe5b1a60f81b7effffffffffffffffffffffffffffffffffffffffffffffffffffffffffffff191614155b156105f6578080600101915050610599565b60608160ff166040519080825280601f01601f19166020018201604052801561062e5781602001600182028038833980820191505090505b509050600091505b60208260ff161080156106815750600060f81b848360ff166020811061065857fe5b1a60f81b7effffffffffffffffffffffffffffffffffffffffffffffffffffffffffffff191614155b156106e457838260ff166020811061069557fe5b1a60f81b818360ff16815181106106a857fe5b60200101907effffffffffffffffffffffffffffffffffffffffffffffffffffffffffffff1916908160001a9053508180600101925050610636565b8092505050919050565b60008060008373ffffffffffffffffffffffffffffffffffffffff1673ffffffffffffffffffffffffffffffffffffffff1681526020019081526020016000206000015411610772576040517f08c379a0000000000000000000000000000000000000000000000000000000008152600401610769906113e3565b60405180910390fd5b6003600081548092919060019003919050555060008060008373ffffffffffffffffffffffffffffffffffffffff1673ffffffffffffffffffffffffffffffffffffffff1681526020019081526020016000206000018190555050565b60008060008473ffffffffffffffffffffffffffffffffffffffff1673ffffffffffffffffffffffffffffffffffffffff1681526020019081526020016000206001015414610853576040517f08c379a000000000000000000000000000000000000000000000000000000000815260040161084a906113c3565b60405180910390fd5b600360008154809291906001019190505550604051806040016040528082815260200160008152506000808473ffffffffffffffffffffffffffffffffffffffff1673ffffffffffffffffffffffffffffffffffffffff16815260200190815260200160002060008201518160000155602082015181600101559050505050565b4260016000600254815260200190815260200160002060030154111561092f576040517f08c379a0000000000000000000000000000000000000000000000000000000008152600401610926906113a3565b60405180910390fd5b4260016000600254815260200190815260200160002060040154101561098a576040517f08c379a000000000000000000000000000000000000000000000000000000000815260040161098190611323565b60405180910390fd5b61099333610b09565b6109d2576040517f08c379a00000000000000000000000000000000000000000000000000000000081526004016109c990611383565b60405180910390fd5b6109db33610b66565b15610a1b576040517f08c379a0000000000000000000000000000000000000000000000000000000008152600401610a1290611363565b60405180910390fd5b600081118015610a435750600160006002548152602001908152602001600020600501548111155b610a82576040517f08c379a0000000000000000000000000000000000000000000000000000000008152600401610a7990611343565b60405180910390fd5b6002546000803373ffffffffffffffffffffffffffffffffffffffff1673ffffffffffffffffffffffffffffffffffffffff1681526020019081526020016000206001018190555060016000600254815260200190815260200160002060060160008281526020019081526020016000206002016000815480929190600101919050555050565b6000806000808473ffffffffffffffffffffffffffffffffffffffff1673ffffffffffffffffffffffffffffffffffffffff1681526020019081526020016000206000015411610b5c5760009050610b61565b600190505b919050565b60006002546000808473ffffffffffffffffffffffffffffffffffffffff1673ffffffffffffffffffffffffffffffffffffffff1681526020019081526020016000206001015410610bbb5760019050610bc0565b600090505b919050565b60006020528060005260406000206000915090508060000154908060010154905082565b60016000600254815260200190815260200160002060050160008154809291906001019190505550604051806060016040528060016000600254815260200190815260200160002060050154815260200182815260200160008152506001600060025481526020019081526020016000206006016000600160006002548152602001908152602001600020600501548152602001908152602001600020600082015181600001556020820151816001019080519060200190610cac929190610cbd565b506040820151816002015590505050565b828054600181600116156101000203166002900490600052602060002090601f016020900481019282601f10610cfe57805160ff1916838001178555610d2c565b82800160010185558215610d2c579182015b82811115610d2b578251825591602001919060010190610d10565b5b509050610d399190610d3d565b5090565b610d5f91905b80821115610d5b576000816000905550600101610d43565b5090565b90565b600081359050610d718161163a565b92915050565b600082601f830112610d8857600080fd5b8135610d9b610d968261151a565b6114ed565b91508181835260208401935060208101905083856020840282011115610dc057600080fd5b60005b83811015610df05781610dd68882610dfa565b845260208401935060208301925050600181019050610dc3565b5050505092915050565b600081359050610e0981611651565b92915050565b600082601f830112610e2057600080fd5b8135610e33610e2e82611542565b6114ed565b91508082526020830160208301858383011115610e4f57600080fd5b610e5a8382846115e7565b50505092915050565b600081359050610e7281611668565b92915050565b600060208284031215610e8a57600080fd5b6000610e9884828501610d62565b91505092915050565b60008060408385031215610eb457600080fd5b6000610ec285828601610d62565b9250506020610ed385828601610e63565b9150509250929050565b600060208284031215610eef57600080fd5b6000610efd84828501610dfa565b91505092915050565b60008060008060808587031215610f1c57600080fd5b600085013567ffffffffffffffff811115610f3657600080fd5b610f4287828801610e0f565b945050602085013567ffffffffffffffff811115610f5f57600080fd5b610f6b87828801610d77565b9350506040610f7c87828801610e63565b9250506060610f8d87828801610e63565b91505092959194509250565b600060208284031215610fab57600080fd5b6000610fb984828501610e63565b91505092915050565b60008060408385031215610fd557600080fd5b6000610fe385828601610e63565b9250506020610ff485828601610e63565b9150509250929050565b611007816115a7565b82525050565b600061101882611579565b6110228185611584565b93506110328185602086016115f6565b61103b81611629565b840191505092915050565b60006110518261156e565b61105b8185611584565b935061106b8185602086016115f6565b61107481611629565b840191505092915050565b600061108c601e83611584565b91507f4e6f7420616c6c6f7765642c20766f74696e672068617320656e6465642100006000830152602082019050919050565b60006110cc601983611584565b91507f43616e64696461746520646f6573206e6f7420657869737421000000000000006000830152602082019050919050565b600061110c602d83611584565b91507f4e6f7420616c6c6f7765642c20616c726561647920766f746564206f6e20746860008301527f697320656c656374696f6e7321000000000000000000000000000000000000006020830152604082019050919050565b6000611172603283611584565b91507f4e6f7420616c6c6f7765642c20796f75722061646472657373206973206e6f7460008301527f20656c696769626c6520746f20766f74652100000000000000000000000000006020830152604082019050919050565b60006111d8602883611584565b91507f4e6f7420616c6c6f7765642c20766f74696e6720686173206e6f74207965742060008301527f73746172746564210000000000000000000000000000000000000000000000006020830152604082019050919050565b600061123e601983611584565b91507f566f74657220616c7265616479207265676973746572656421000000000000006000830152602082019050919050565b600061127e602983611584565b91507f566f74657220616c72656164792062616e6e6564206f72206e6576657220726560008301527f67697374657265642100000000000000000000000000000000000000000000006020830152604082019050919050565b6112e0816115dd565b82525050565b60006020820190506112fb6000830184610ffe565b92915050565b6000602082019050818103600083015261131b818461100d565b905092915050565b6000602082019050818103600083015261133c8161107f565b9050919050565b6000602082019050818103600083015261135c816110bf565b9050919050565b6000602082019050818103600083015261137c816110ff565b9050919050565b6000602082019050818103600083015261139c81611165565b9050919050565b600060208201905081810360008301526113bc816111cb565b9050919050565b600060208201905081810360008301526113dc81611231565b9050919050565b600060208201905081810360008301526113fc81611271565b9050919050565b600060208201905061141860008301846112d7565b92915050565b600060608201905061143360008301866112d7565b8181036020830152611445818561100d565b905061145460408301846112d7565b949350505050565b600060c08201905061147160008301896112d7565b81810360208301526114838188611046565b905061149260408301876112d7565b61149f60608301866112d7565b6114ac60808301856112d7565b6114b960a08301846112d7565b979650505050505050565b60006040820190506114d960008301856112d7565b6114e660208301846112d7565b9392505050565b6000604051905081810181811067ffffffffffffffff8211171561151057600080fd5b8060405250919050565b600067ffffffffffffffff82111561153157600080fd5b602082029050602081019050919050565b600067ffffffffffffffff82111561155957600080fd5b601f19601f8301169050602081019050919050565b600081519050919050565b600081519050919050565b600082825260208201905092915050565b60006115a0826115bd565b9050919050565b60008115159050919050565b6000819050919050565b600073ffffffffffffffffffffffffffffffffffffffff82169050919050565b6000819050919050565b82818337600083830152505050565b60005b838110156116145780820151818401526020810190506115f9565b83811115611623576000848401525b50505050565b6000601f19601f8301169050919050565b61164381611595565b811461164e57600080fd5b50565b61165a816115b3565b811461166557600080fd5b50565b611671816115dd565b811461167c57600080fd5b5056fea365627a7a7231582075eca0f7476ccd4704475a103a1cc0a3ed6a9cdaaaf59880cc80377aaa9813846c6578706572696d656e74616cf564736f6c63430005100040",
  "source": "pragma solidity ^0.5.16;\r\npragma experimental ABIEncoderV2;\r\n\r\ncontract Evoting {\r\n    struct Voter{\r\n        uint256 pool_id; // 0 - disabled / voting forbidden\r\n        uint256 vote_height; // height == ElectionsCount => already voted on current elections\r\n    }\r\n    struct Candidate {\r\n        uint256 id; //Start with 1\r\n        string name;\r\n        uint256 voteCount;\r\n    }\r\n    struct Election {\r\n        uint256 id; //Start with 1\r\n        string name;\r\n        uint256 voteCount;\r\n        uint256 voteStart; //timestamp as seconds since unix epoch\r\n        uint256 voteEnd; //timestamp as seconds since unix epoch\r\n        uint256 CandidatesCount;\r\n        mapping(uint256 => Candidate) Candidates;\r\n    }\r\n\r\n    mapping(address => Voter) public Voters;\r\n    mapping(uint256 => Election) public Elections;\r\n    uint256 public ElectionsCount;\r\n    uint256 public VotersCount;\r\n\r\n    constructor() public {\r\n    }\r\n\r\n    function addElections (string memory _name, bytes32[] memory _candidates, uint256 _candidatesCount, uint256 _durationSeconds) public {\r\n        ElectionsCount++;      \r\n        Elections[ElectionsCount] = Election(\r\n            ElectionsCount,\r\n             _name,\r\n             0,\r\n             block.timestamp + 0,\r\n             block.timestamp + _durationSeconds,\r\n             0\r\n             );\r\n\r\n        for (uint i=0; i<_candidatesCount; i++) {\r\n            addCandidate(bytes32ToString(_candidates[i]));\r\n        }\r\n    }\r\n    function addCandidate(string memory _name) private {\r\n        Elections[ElectionsCount].CandidatesCount++;        \r\n        Elections[ElectionsCount].Candidates[Elections[ElectionsCount].CandidatesCount] = Candidate(Elections[ElectionsCount].CandidatesCount, _name, 0);\r\n    }\r\n    function GetCandidate(uint256 _idElection, uint256 _idCandidate) public view returns (\r\n        uint256, \r\n        string memory,\r\n        uint256) {              \r\n        return (Elections[_idElection].Candidates[_idCandidate].id,\r\n        Elections[_idElection].Candidates[_idCandidate].name,\r\n        Elections[_idElection].Candidates[_idCandidate].voteCount\r\n        );\r\n    }\r\n    function RegisterVoter(address _voterAddress, uint256 pool_id) public {\r\n        require(Voters[_voterAddress].vote_height == 0, \"Voter already registered!\");\r\n        VotersCount++;\r\n        Voters[_voterAddress] = Voter(pool_id, 0);\r\n    }\r\n    function BanVoter(address _voterAddress) public {\r\n        require(Voters[_voterAddress].pool_id > 0, \"Voter already banned or never registered!\");\r\n        VotersCount--;\r\n        Voters[_voterAddress].pool_id = 0;\r\n    }\r\n    function CanVote(address _voterAddress) public view returns (bool) {\r\n        if(Voters[_voterAddress].pool_id <= 0)\r\n            return false;\r\n        return true;\r\n    }\r\n    function HasVoted(address _voterAddress) public view returns (bool) {\r\n        if(Voters[_voterAddress].vote_height >= ElectionsCount)\r\n            return true;\r\n        return false;\r\n    }\r\n    function Vote(uint256 _candidateId) public {\r\n        require(\r\n            Elections[ElectionsCount].voteStart <= block.timestamp,\r\n            \"Not allowed, voting has not yet started!\"\r\n        );\r\n\r\n        require(Elections[ElectionsCount].voteEnd >= block.timestamp, \"Not allowed, voting has ended!\");\r\n\r\n        require(CanVote(msg.sender), \"Not allowed, your address is not eligible to vote!\");\r\n\r\n        require(!HasVoted(msg.sender), \"Not allowed, already voted on this elections!\");\r\n\r\n        require(\r\n            _candidateId > 0 && _candidateId <= Elections[ElectionsCount].CandidatesCount,\r\n            \"Candidate does not exist!\"\r\n        );\r\n\r\n        Voters[msg.sender].vote_height = ElectionsCount;\r\n\r\n        Elections[ElectionsCount].Candidates[_candidateId].voteCount++;\r\n    }\r\n\r\n    function bytes32ToString(bytes32 _bytes32) public pure returns (string memory) { //Helper function\r\n        uint8 i = 0;\r\n        while(i < 32 && _bytes32[i] != 0) {\r\n            i++;\r\n        }\r\n        bytes memory bytesArray = new bytes(i);\r\n        for (i = 0; i < 32 && _bytes32[i] != 0; i++) {\r\n            bytesArray[i] = _bytes32[i];\r\n        }\r\n        return string(bytesArray);\r\n    }\r\n}\r\n",
  "sourcePath": "C:\\Projects\\Tutorials\\evoting-platform\\contracts\\Evoting.sol",
  "compiler": {
    "name": "solc",
    "version": "0.5.16+commit.9c3226ce.Emscripten.clang"
  },
  "schemaVersion": "3.0.23",
  "updatedAt": "2020-04-17T11:55:35.690Z",
  "networkType": "ethereum",
  "devdoc": {
    "methods": {}
  },
  "userdoc": {
    "methods": {}
  }
}